:020000040000FA
:1000000080316428053008007E1480318B1D09285A
:100010000A2812280B1C0D280E2812289731C127F8
:10002000803162280B1F1528162862282100111E16
:100030001A281B2827282000111E1F2820282728BF
:10004000220060088A005F080A00803162282100CF
:10005000911E2B282C2838282000911E302831286A
:10006000382822005E088A005D080A008031622874
:100070002100921D3C283D2849282000921D41283E
:1000800042284928210055088A0054080A00803176
:1000900062282100911D4D284E2854282000911DD2
:1000A00052285328542842282100121D5828592824
:1000B00062282000121D5D285E28622888317F207A
:1000C000803162287E10090080316628A9308400C2
:1000D0009730850063308600013087000730973104
:1000E00095278031FD01E901EA01EB01EC01CA30FD
:1000F000840000308500193097318F2780312030FF
:10010000840001308500353097318F278031A03051
:10011000840001308500283097318F2780317E1090
:1001200020008931F2292100AD0020005808860006
:100130008701403FDA00413FDB005A0884005B083A
:1001400085001200253A031DA628A728332A58083F
:10015000860087010130810741310318810A21009F
:10016000CC01CD012000E901EA01FF302100CE00E1
:10017000FF30CF002000580886008701403FDA009A
:10018000413FDB005A0884005B08850012002A3AD0
:10019000031DCB28CC28EE285808860087010130A3
:1001A000810741310318810A590886008701010837
:1001B0008400850102308107003F2100CC00013F0F
:1001C000CD00CD1FE428E52837292000691421003F
:1001D000CC09CD09CC0A0319CD0A37295808860065
:1001E0008701403FA900413FAA008431E0248031CB
:1001F00020002A082100CD00200029082100CC0081
:100200000A29200058088600870101308107413102
:100210000318810A2000580886008701403FDA0051
:10022000413FDB005A0884005B0885000008D03E8F
:10023000DC00FF3003180030DD0000305D020A30C2
:1002400003195C02031C25292729013028290030C5
:10025000DE00DF015E082100AB0020005F08210006
:10026000AC002B082C04031D362937290129200056
:10027000580886008701403FDA00413FDB005A08FA
:1002800084005B0885001200633A031D4829492950
:100290006E29580886008701013081074131031813
:1002A000810A59088600870101088400850102300F
:1002B00081070008DA005A082100AA002A08200055
:1002C000DA005A08AF0021002D08863184268031DB
:1002D00020003008D9002F08D800582A5808860076
:1002E0008701403FDA00413FDB005A0884005B0889
:1002F00085001200733A031D7E297F29A62958081C
:10030000860087010130810741310318810A5908AD
:100310008600870101088400850102308107003FC3
:100320002100A800013FA90029082000B0002100F9
:1003300028082000AF0021002D0883314A23803196
:1003400020003008D9002F08D800582A5808860005
:100350008701403FDA00413FDB005A0884005B0818
:1003600085001200753A031DB629B729FC295808E3
:10037000860087010130810741310318810A59083D
:100380008600870101088400850102308107003F53
:100390002100A000013FA100A201A301A401A50129
:1003A000A601A70120082000C0002100210820008C
:1003B000C100210022082000C200210023082000E3
:1003C000C300210024082000C400210025082000CB
:1003D000C500210026082000C600210027082000B3
:1003E000C70021002D0882315922803120004108A8
:1003F000D9004008D800582A580886008701403F95
:10040000DA00413FDB005A0884005B0885001200D7
:10041000253A031D0C2A0D2A282A58088600870130
:100420000130810741310318810A2530A7000030CF
:10043000A80021002D082000DA005A08A9008E31FA
:10044000FE26803101302000D8000030D900582A23
:100450005808860087010130810741310318810A5D
:10046000D801D901582A580886008701403FDA0090
:10047000413FDB005A0884005B0885000008DC006F
:10048000DD015C08A7005D08A80021002D08200000
:10049000DE005E08A9008E31FE268031200058085B
:1004A000860087010130810741310318810A222A21
:1004B00008002000C9002100CF1B5F2A602A652A9E
:1004C000FD302000E905FF30EA0521004F08803AA1
:1004D0002000C80080304802031D712A013021002D
:1004E0004E020318742A752A7B2A01302000CA00A4
:1004F0000030CB00832A21004F082000CB002100D0
:100500004E082000CA0021004D082000CD00210027
:100510004C082000CC004008CE004108CF00420823
:10052000D0004308D1004408D2004508D300460853
:10053000D4004708D5001F30D6000030D700230074
:10054000C701032BFF302000D607FF30D73D0A300C
:10055000A300A401A501A601A701A801A901AA0160
:100560004E08AB004F08AC005008AD005108AE007B
:100570005208AF005308B0005408B1005508B2004B
:1005800086311326823120002308303EC8005608E9
:10059000A83E86000130870048088100FF30CA0766
:1005A000FF30CB3DFF30CC07FF30CD3D0A30A300FC
:1005B000A401A501A601A701A801A901AA014E084D
:1005C000AB004F08AC005008AD005108AE00520817
:1005D000AF005308B0005408B1005508B20085318F
:1005E0008F25823120002308CE002408CF00250863
:1005F000D0002608D1002708D2002808D3002908F7
:10060000D4002A08D5002000560857040319092BE6
:100610000A2B362B4E084F04500451045204530445
:1006200054045504031D152B162BA22A4B08803A9F
:10063000C80080304802031D1F2B01304A020318F6
:10064000222B232BA22A20004D08803AC80080309C
:100650004802031D2D2B01304C02031C302B312B83
:10066000362B2000E918352B362BA22A20005608FD
:10067000A83EC8004808B7004D08B9004C08B800AB
:1006800049088F31A727823120003808C100370878
:10069000C00008002000BF006330860001308700E2
:1006A00034308400003085000730B10016001A0095
:1006B000B10B562B3008C1002F08C0004008410480
:1006C000031D632B642B682B3430C0000030C10045
:1006D0004108A4004008A3008A313D228331200054
:1006E0002408C5002308C40021004F082000C300CF
:1006F00021004E082000C200C31B7F2B802B942BAF
:100700004308803AB1004508803A3102031D8A2B24
:1007100044084202031C8D2B8E2B8F2B942B200020
:100720004308C5004208C40020004508C30044082F
:10073000C20021004D082000BE0021004C0820000E
:10074000BD006918A42BA52BC52BB72B203020008A
:10075000A7000030A8003F08B1003108A9008E3181
:10076000FE26833101302000C4070030C53D450816
:10077000803AB1003E08803A3102031DC12B3D088A
:100780004402031CC42BC52BA62B2000BB01BC01BB
:10079000E52B200040088400410885000008B100D6
:1007A000B2013108A7003208A8003F08B30033089F
:1007B000A9008E31FE26833101302000C0070030B1
:1007C000C13D0130BB070030BC3D3C08803AB10060
:1007D0004308803A3102031DEF2B42083B02031C01
:1007E000F22BF32BC92B2000691CF72BF82B182CAC
:1007F0000A2C20302000A7000030A8003F08B100DC
:100800003108A9008E31FE26833101302000C40753
:100810000030C53D4508803AB1003E08803A3102BB
:10082000031D142C3D084402031C172C182CF92B13
:1008300020004508B0004408AF0008002100DE1C7D
:10084000222C232C322C5B0881390319282C292CCB
:10085000322CDA308A31902284312100DE102800D7
:100860009C01DF2C5E19352C362C372CDF2C200018
:10087000B501DA308C31CA248431200036082100D9
:10088000DD00200035082100DC00C8308600013082
:1008900087000830C90000301E00C90B4C2C5D08D1
:1008A000C0005C08BF00C83087315C278431DA3073
:1008B0009731D3278431003A031D5F2C602C662CBE
:1008C00010302300D0009830D1006B2C173023005B
:1008D000D0009830D10070302100AE009030AF00D1
:1008E000C830B0000130B100230051082100B3002E
:1008F000230050082100B20089314D2184312100AC
:100900005E1122008D136400DA309731D3278431D1
:10091000003A031D8C2C8D2CDF2CA8302100AE005A
:100920009030AF0089314D21843122008D179731ED
:100930004A278431003A03199E2C9F2C972C2200C1
:100940008D13630028009C012100D001D1012000FB
:100950008319AB2CAC2CB22C30302300D2000030E9
:10096000D300B72C31302300D2000030D300200058
:10097000031ABB2CBC2CC22C30302300D400003016
:10098000D500C72C31302300D4000030D500003012
:100990002100AE009030AF00230055082100B100C7
:1009A000230054082100B000230053082100B300A5
:1009B000230052082100B20089314D218431080002
:1009C0002000B601B701AF01B001EA2C0130A90740
:1009D0000030AA3DB501B50A290884002A0885001F
:1009E0001200203A0319F52CF62C0B2D290884004F
:1009F0002A0885000008F73EAB00FF3003180030DE
:100A0000AC0000302C02053003192B02031C092D09
:100A10000A2D0B2DB5013508AB00AC012B08B10038
:100A20002C08B20031083204031D172D182DE62CB6
:100A3000222D0130AF000030B0000130A907003096
:100A4000AA3D562D290884002A0885000008AB001D
:100A5000AC012C08003A03192E2D562D2B082B3AE9
:100A600003191D2D063A0319192D562D2908840046
:100A70002A0885000008AB003708A4003608A30048
:100A80000A30A5000030A6008A31CE228431200031
:100A90002408AD002B082302AC00031CAD032C0876
:100AA000303EB60000302D3DB7001D2D29088400D2
:100AB0002A0885000008D03EAB00FF300318003044
:100AC000AC0000302C020A3003192B02031C692DE4
:100AD0006B2D01306C2D0030AD00AE012D08B30040
:100AE0002E08B40033083404031D772D782D362DDD
:100AF0002F083004031D7D2D7E2D8A2D3609AB0075
:100B00003709AC00AB0A0319AC0A2B08A9002C0862
:100B1000AA008E2D3708AA003608A9000800343034
:100B200086000030870008302000B30000301E002F
:100B3000B30B972D23082404250426042704280436
:100B400029042A040319A52DA62D022EBC01BC0AD6
:100B5000B52DA335A40DA50DA60DA70DA80DA90DA6
:100B6000AA0D0130B3003308BC07AA1FB82DB92D58
:100B7000A92DB435B50DB60DB70DB80DB90DBA0D1B
:100B8000BB0D2A083202031DDF2D29083102031D87
:100B9000DF2D28083002031DDF2D27082F02031D3B
:100BA000DF2D26082E02031DDF2D25082D02031D33
:100BB000DF2D24082C02031DDF2D23082B02031C2C
:100BC000E22DE32DF42D2308AB022408AC3B2508CD
:100BD000AD3B2608AE3B2708AF3B2808B03B2908B1
:100BE000B13B2A08B23B3414AA36A90CA80CA70CB6
:100BF000A60CA50CA40CA30C0130BC02031D012EF5
:100C0000022EB92D3408A3003508A4003608A5002B
:100C10003708A6003808A7003908A8003A08A90034
:100C20003B08AA0008002000230824042504260409
:100C30002704280429042A0403191F2E202E732EAA
:100C4000B401B40A2F2EA335A40DA50DA60DA70D32
:100C5000A80DA90DAA0D0130B3003308B407AA1FCF
:100C6000322E332E232E2A083202031D512E29083C
:100C70003102031D512E28083002031D512E270872
:100C80002F02031D512E26082E02031D512E25086A
:100C90002D02031D512E24082C02031D512E230862
:100CA0002B02031C542E552E652E2308AB0224085C
:100CB000AC3B2508AD3B2608AE3B2708AF3B2808D8
:100CC000B03B2908B13B2A08B23BAA36A90CA80CB4
:100CD000A70CA60CA50CA40CA30C0130B402031D98
:100CE000722E732E332E2B08A3002C08A4002D087F
:100CF000A5002E08A6002F08A7003008A80031087C
:100D0000A9003208AA0008002000B80021004C0801
:100D10004D04031D8C2E8D2E952E4D082000B700FE
:100D200021004C082000B6009E2E4C08FF3E2000FB
:100D3000B600FF3021004D3D2000B700691CA12EF8
:100D4000A22EB02E2F08B100B2013108A700320840
:100D5000A8003808B3003308A9008E31FE2686317A
:100D60002000B71BB42EB52EB62EB82EB601B70193
:100D7000B401B501CC2E20302000A7000030A8001F
:100D80003808B1003108A9008E31FE2686310130C5
:100D90002000B4070030B53D3508803AB10037086F
:100DA000803A3102031DD62E36083402031CD92E98
:100DB000DA2EBB2E20006918DE2EDF2EED2E2F0836
:100DC000B100B2013108A7003208A8003808B3000A
:100DD0003308A9008E31FE26863120003408013EFA
:100DE000AF000030353DB000080026302000A300E1
:100DF0000830A4009731DC27863173302000A3002F
:100E00000A30A4009731E527863120302100B50053
:100E100035082000A3006230A4000D30A5009E30EC
:100E2000A6000D30A70048308B3173238631200097
:100E30002330860000308700DA30840000308500DF
:100E400009302100B60016001A00B60B232F20002F
:100E50000D1A2B2F2C2F2F2F2100D601342F81304C
:100E60002100B5003508D6005608031D382F392F4C
:100E70003E2F9D30B7009030B800422FB230B700FF
:100E80009030B8002830AE009030AF000030B00095
:100E90009830B1003808B3003708B20089314D21CD
:100EA000863121005608B50035082000B800DA3038
:100EB0008A31EE22863108002100C7002030C100AF
:100EC0004108C800C01F652F662F762F2D30C10046
:100ED0004108C8004008C2003F08C100C109C2095A
:100EE0004108103EBF000030423DC0004008C20033
:100EF0003F08C1000430C236C10C890B7B2F0F3074
:100F000041052000A3000030210042052000A4007C
:100F10006430A5000030A6008A31CE22873120003F
:100F2000230E0F392100C5002000240EF0392100C6
:100F3000C5042000240E0F392100C6000830AE0081
:100F40009830AF004808C100C2014108B000420813
:100F5000B1004008C4003F08C3004408C300C401F6
:100F6000FF304305B20000304405B3004608B50029
:100F70004508B40047088D312A2587310800200034
:100F80006B083D3E860001308700810123001D1D56
:100F9000CA2FCB2FD82F20006B083D3E8600013092
:100FA0008700811422005C088A005B080A008731F0
:100FB00023009D1CDC2FDD2FEA2F20006B083D3E17
:100FC000860001308700011522005A088A0059085E
:100FD0000A00873120006B083D3E86000130870003
:100FE00001080319F42FF52FFC2F220058088A005E
:100FF00057080A008731FF2F8A31572287310800AE
:1010000001300800200024082200DA002000230814
:101010002200D9000800200024082200DE00200061
:1010200023082200DD000800200024082200E00040
:10103000200023082200DF0008002400940108306B
:1010400095009601133092009512080000302000A0
:101050008E1A0130F000DA308A31232288310800FC
:101060002000A6002608A5002508A3008C31152421
:10107000883108007608F1007508F0007708F8005C
:101080007808F20000308B31C0238831080024003A
:10109000951A4B284C285328940108309500960146
:1010A000133092009516080020002908A400280893
:1010B000A3002A08AB002B08A50002308B31EA23DD
:1010C0008831080020002908A4002808A3002A0865
:1010D000AB002B08A50000308B31EA2388310800D3
:1010E0002200610862040319762877287C286208A8
:1010F0008A0061080A008831270099120800200040
:1011000012112200550856040319872888288D28B3
:1011100056088A0055080A0088310800F3002200AA
:10112000BC1D932894289D287308F2007208B7000C
:101130007108B9007008B800BC1108000130F00057
:101140000030F100790888318E2088310030F500B8
:10115000F600F70188313A20883104300800013068
:10116000F0000030F100790888318E20883100309D
:10117000F500F600F70188313A2088310230080086
:101180000230F0000030F100790888318E2088317B
:101190000030F500F600F70188313A20883102303E
:1011A00008000230F0000030F100790888318E200C
:1011B00088310030F500F600F70188313A20883197
:1011C000043008000130F0000030F1007908883167
:1011D0008E2088310030F500F600F70188313A2082
:1011E0008831023008000230F0000030F100790848
:1011F00088318E2088310030F500F600F701883103
:101200003A208831023008000130F0000030F1004F
:10121000790888318E2089310030F500F600F70119
:1012200088313A208931043008000230F000003063
:10123000F100790888318E2089310030F500F60000
:10124000F70188313A2089310430080088311D20A7
:1012500089318E31692689319731A22789319731B9
:101260004E2789318931392189318E3120268931C2
:101270000800F93028009D009C0120001211210077
:10128000121514302000A3001730A4009731E52771
:1012900089314F3028009E000800B0302000E8005F
:1012A00068082100B4002F082000E10021002E086A
:1012B0002000E000B430E8006808E20000308C3123
:1012C000F924893108002000A6002200BC1D6929EC
:1012D0006A29792920002608A50025082200B700E0
:1012E000200024082200B900200023082200B800B2
:1012F000BC110800790886008701403FF000413F9B
:10130000F1007908023E86008701010888318E20AD
:1013100089310030F500F600F70188313A20893133
:1013200004300800790886008701403FF000413F03
:10133000F1007908023E86008701010888318E207D
:1013400089310030F500F600F70188313A20893103
:1013500002300800790886008701403FF000413FD5
:10136000F1007908023E86008701010888318E204D
:1013700089310030F500F600F70188313A208931D3
:1013800002300800790886008701403FF000413FA5
:10139000F1007908023E86008701010888318E201D
:1013A00089310030F500F600F70188313A208931A3
:1013B00002300800E42903302000A5009730890B93
:1013C000DF29A50BDF29003201302000A302003005
:1013D000A43B230A031DF029240A031DF029F12947
:1013E000DB2908008931262189318B170B17E8305A
:1013F0002000A3000330A4008931DA21893186312D
:10140000F52689312100171484311E248931042ADC
:101410008031642820002308D03EA500FF30243D01
:10142000A600003026020A3003192502031C192ADF
:101430001B2A01301C2A0030A700A8012708A3009E
:101440002808A4000800F300730A8600870104300E
:101450000105F1007108700603192F2A312A0130A5
:10146000322A0030F2007308043E8600870101082A
:101470007206FE3972068100080020002408A700C9
:101480002308A600472A0130A3070030A43D230803
:101490008400240885001200031D4F2A502A432A85
:1014A00026082302A3002708243BA40008002300E9
:1014B0001908F00020006B08453E860001308700C7
:1014C000700881000130F0007008EB0708306B02F3
:1014D000031C6B2A6C2A6D2AEB010130F0007008A6
:1014E0002100D807080001302100D0070030D13D8D
:1014F000183050065104031D7E2A7F2A812ADE14EB
:101500008F2A00305102193003195002031C892A16
:101510008A2A8F2A5E15D001D10122008D1708007A
:101520002000B7003708860087010108B50035089C
:10153000AC00AD01AD0A3708013EB6003608AE007A
:101540000130AF000030B0003708073E8600870149
:10155000413F8A00403F0A008A3108002000A40071
:10156000A501A50A2200BC18B62AB72ACB2ABC14AA
:101570002000A50124080319BE2ABF2AC32A22007D
:10158000BA01BA0AC82A0230A30023082200BA000E
:10159000973130278A312000250808002000A70154
:1015A000A801231CD42AD52AD92A2508A70726084A
:1015B000A83D0130A535A60D890BDA2A0130A436E5
:1015C000A30C890BDF2A23082404031DE82AE92A37
:1015D000D12A2808A4002708A30008002000BA0088
:1015E0007E30B9003A0A86008701390881058130CA
:1015F0003806031DFC2AFD2A012B3A0A86008701C2
:1016000001143A088A3190228A3120003808B90042
:101610003A0A860087013908810408002000A401E5
:10162000A40A2200BC18152B162B2C2B3C11FF30C2
:101630002000A30023082200B600973127278B3112
:1016400097312D278B3197312A278B3122003B0888
:101650002000A3002308A40020002408080008306C
:10166000210063020318352B362B4F2B59084D3EB2
:10167000860001308700010823009A000130F00045
:1016800070082100D90708305902031C482B492B48
:101690004A2BD9010130F0007008E307502B1112DA
:1016A00008002000A701A70A2030230624040319FC
:1016B0005A2B5B2B6B2B2308F73EA500FF30243DF4
:1016C000A60000302602053003192502031C692BF1
:1016D0006A2B6B2BA7012708A500A6012508A300EC
:1016E0002608A40008002000AD002D08AC002C083E
:1016F000AE002308AC002C08AF00B001B101B2016C
:101700002508B4002408B3002708B6002608B50051
:101710002E308600003087002330840000308500A2
:101720000930AC0016001A00AC0B922B0800200008
:10173000B600B401B501AF2B3308B000B1013008D9
:10174000A7003108A8002F08B2003208A9008E3186
:10175000FE268B3101302000B4070030B53D34083F
:101760003607B00030088600013087000108B1005C
:101770003108B3003308031DBE2BBF2B9C2B080080
:10178000F400700871040319C62BC72BDA2B7435CB
:10179000203E8600013087007008C03F7108C13FBD
:1017A0007208F30074082C3E86000130870073082D
:1017B0008100E92B7435203E86000130870000301F
:1017C000C03F0830C13F74082C3E860001308700BE
:1017D000810108002000A700230824040319F12B2D
:1017E000F22B052C2735203E860001308700230888
:1017F000C03F2408C13F2508A60027082C3E8600CC
:101800000130870026088100142C2735203E8600F1
:10181000013087000030C03F0830C13F27082C3E10
:101820008600013087008101080021006308031948
:101830001A2C1B2C152C111A1E2C1F2C242C2000AA
:10184000230823009A003D2C111220002308A40035
:101850006C084D3E8600013087002408810001306D
:10186000A4002408EC0708306C02031C382C392C27
:101870003A2CEC0101302100E3022100111608008E
:1018800022003C100230FA007A08BB004F2C97313E
:1018900066278C316C2C97316B278C316C2C2E0881
:1018A000FA007A08F9000430203E860001308700F3
:1018B000413F8A00403F0A008C31FB00FC017C085C
:1018C000003A0319642C4B2C7B08023A0319472C6D
:1018D000013A0319472C4B2C0800973124278C31EF
:1018E00022003C1C742C752C832C973189278C3159
:1018F000003A03197C2C7D2C832C0F302000A00093
:1019000020082200BA0022003A082000A000A1010D
:10191000A035A10D5030200784009030213D850076
:10192000013F8A00003F0A008C312000A2002208FB
:101930002200BA0008002200BC15AB2C97316627A4
:101940008C31C92C973121278C310330C92C973128
:101950006B278C31C92C2C08FA007A08F900210871
:101960008A0020080A008C31FB00FC017C08003A48
:101970000319BB2CA72C7B08013A0319A72C033AA7
:1019800003199E2C013A03199E2C073A0319A22C25
:10199000A72C08002000BE003E0886008701010831
:1019A000B7003708AC003508B8003808AD003C3047
:1019B000B9003908AE000230AF000030B0003E0878
:1019C000053E86008701413F8A00403F0A008C3176
:1019D00020003D08B700B8013C08B900BA01390839
:1019E000BA00B90137083904B50038083A04B6001E
:1019F00008002000E5006108E7006008E60021001B
:101A0000CA01CB01172D6630E3006308D8006208D5
:101A1000E4006408D9006508803193208C312000EF
:101A200058082100CA07200059082100CB3D20009A
:101A300066088400670885001200031D202D212DF3
:101A4000032D21004B082000E10021004A0820005E
:101A5000E00008002100B800B0302000E80068086D
:101A60002100B90038082000E80068082100BA0009
:101A7000BB01BC01BD01BE012F082000E100210017
:101A80002E082000E000B930E8006808E200BA3013
:101A90008C31F9248D31200061082100B70020002D
:101AA00060082100B6003B0838072000E8006808FD
:101AB000860001308700810121003708AF00360819
:101AC000AE00080020002E08B1003108B400300834
:101AD000B3002F08B20020002C088E31B2268D31C1
:101AE000003A0319742D752D6B2DC2302000A8000B
:101AF0000930A9003230B1003108AA0088316220D3
:101B00008D3101302000A3000030A4002D30893138
:101B100063218D3100302000A800A900AA0188317E
:101B200054208D31973184278D318B310E238D31A7
:101B3000013A03199C2D9D2D952D080020002E089B
:101B4000B1003108B4003008B3002F08B200200003
:101B50002C088E31B2268D31003A0319B02DB12DEB
:101B6000A72D7A302000A8000930A9003230B1003A
:101B70003108AA00883162208D3101302000A30095
:101B80000030A4002D30893163218D3100302000D8
:101B9000A800A900AA01883154208D3197318427EB
:101BA0008D318B310E238D31013A0319D82DD92D6A
:101BB000D12D080097311E278D31FA0022003708F9
:101BC000860087017A0881000130FA007A08B70799
:101BD0000130B8020030B93B380839040319F12D3F
:101BE000F22DF72D973142278D3105301F2EBC1570
:101BF000012E97317A278D311F2E973175278D3120
:101C00001F2E2C08FA007A08F90021088A00200803
:101C10000A008E31FB00FC017C08003A0319112EEA
:101C2000FD2D7B08013A0319FD2D033A0319F92D07
:101C3000013A0319F92D073A0319FD2DFD2D08006E
:101C400021009112BF302000A3000730A40088318A
:101C50000B208E31210011122F302000A3000B30F9
:101C6000A400883114208E31083023009F0080307A
:101C70009D0024309E0022309B009C0112302000E9
:101C8000A3001730A4009731F7278E313A30200097
:101C9000A3001730A400883102208E313630200096
:101CA000A3001730A4009731EE278E312100D70111
:101CB0002000EC012100D90108302000A5002508F2
:101CC0002100E3002000EB01FD012100D801911665
:101CD000080022008C018D018E0108302100900047
:101CE000FF308C007F308D00BE308E0080302300AE
:101CF0008E002F308D003F308C00240090018D012C
:101D00008C018E012100951725008C018D018E011B
:101D1000FF3026008C00FF308D00FF308E00FF303A
:101D200027008C00FF308D00FF308E0008309000BF
:101D300099129816971613302000A3001730A400AC
:101D40009731DC278E318B1514303C00A100103008
:101D50003D00A3001130A4001430A60013303C0055
:101D6000A00008002000A600A701A70A22003C1935
:101D7000BA2EBB2EFB2E20002608A5002508220027
:101D8000B600BC103C153C100E302000A500250804
:101D90002200BA00F430B4000130B500BC150030A8
:101DA000A0000830A100AC010030A2000830A30060
:101DB000AD010030A4000830A500AE010030A6003F
:101DC0000830A700AF010230A8000030A900B00120
:101DD00046302000A3001730A4009731CA278E3167
:101DE000973127278E31883147208E31973133271D
:101DF0008E312000A70120002708080020002908B4
:101E00000319032F042F092F2908031D082F092F59
:101E10000E2F2708883130208E314F2F2908033E9E
:101E200086008701160001040319172F182F352F7C
:101E30002908033E86008701403FAA00413FAB00CE
:101E4000290A86008701403FAC00413FAD002D08C4
:101E5000803AAE002B08803A2E02031D312F2A084B
:101E60002C020318342F352F4F2F20002708AA00EB
:101E7000290886008701290A8400850100080107D6
:101E8000AB002B088600013087002A088100290A50
:101E9000860087010130810741310318810A08005B
:101EA000973189278F31003A0319572F582F892FDF
:101EB000652F97315C278F31A62F973161278F319E
:101EC000A62F97316B278F31A62F22002F08FA00FB
:101ED0007A08F9000630203E860001308700413F35
:101EE0008A00403F0A008F31FB00FC017C08003A69
:101EF00003197B2F612F7B08013A0319612F033AE5
:101F00000319592F013A03195D2F073A0319612F5D
:101F1000612F22003C101730203E860001308700E0
:101F2000403F84008501810A0008973152278F3194
:101F300001302200B8020030B93B38083904031DD3
:101F4000A22FA32FA52F0630A62F033008002000B4
:101F5000BF00691CAC2FAD2FB52F3F08BA003A085F
:101F6000AF0037088B3197238F312000B91BB92F71
:101F7000BA2FBF2F3908BE003808BD00C12FBD01E0
:101F8000BE01BB01BC01D52F20302000A7000030CE
:101F9000A8003F08BA003A08A9008E31FE268F310A
:101FA00001302000BB070030BC3D3C08803ABA003D
:101FB0003E08803A3A02031DDF2F3D083B02031C16
:101FC000E22FE32FC42F20006918E72FE82FF02F0E
:101FD0003F08BA003A08AF0037088B3197238F319A
:101FE00020003708A3000130A4008A313D228F3140
:101FF00020003D082307B7003E08243DB800080034
:102000002E342E342E34573441344B34453420345E
:1020100055345034203453345434413454345534CA
:10202000533420346E3454344F345B3420342534EC
:10203000633420345D3420346E34503444345B34A3
:1020400020342534633420345D340A340D340034B4
:102050005334543441345234543420345434653479
:102060006D34703465347234613474347534723460
:1020700065342034533445344E3453344F34523461
:102080003A342034253473342E3420344D346F34B4
:10209000643465343D34253473340A340D340034EB
:1020A00057341734B8341734B034173450340F342D
:1020B000DA340D349B3417349B340C345C341734CD
:1020C00061341734663417346B3417347034173472
:1020D000753417347A3417347F34173440340C3461
:1020E000543465346D34703465347234613474340E
:1020F0007534723465343A342034253438347334CA
:1021000020345B342534363473345D340A340D3472
:1021100000340034003415340C34003400340034FE
:10212000003414340834BF3407340B3408344A34D0
:1021300017342F340B3420340E3443344F344E34A0
:10214000543449344E3455344F34553453340034B8
:1021500053344C344534453450342E342E342E34DC
:10216000203400344F344E3445345F3453344834D3
:062170004F34543400342A
:102E24000800080008002400961408002400161561
:102E3400080024009615080024001108080020004A
:102E4400911508002000911108002000911108003C
:102E54002400951208002100911108002400161482
:102E640008002100911508008A3157229731080083
:102E740023001D121D1608002400961616160800BD
:102E840024009612161608008C316D249731080020
:102E940023001E0C013908001C3021009700080093
:102EA400F00070082400910008002200BC10BB014F
:102EB4000E300800973115279731013008009731FB
:102EC40015279731023008009731152797310130C3
:102ED40008009731182797310030080097314227AE
:102EE40097310530080097313E2797310A300800A2
:102EF40097313E279731093008002200BC10BB01EE
:102F04000E30080000308A31AE22973108002400C8
:102F1400160E890C890C0139080064008001013106
:102F2400890B902F0034FE0012001E00FE0B962F1A
:102F3400003422003C1097311B27973104300800DD
:102F4400723021009900980122009601080028346B
:102F54006E3475346C346C342934003422003C14DF
:102F640036359731522797310330080022003C143C
:102F74000314360D97315227973105300800270086
:102F8400991EC52FC62FC92F88317020973108008C
:102F9400200024082100D500200023082100D400AB
:102FA40008002000A3002308043E860087010108CE
:102FB40001390800200024082200E2002000230830
:102FC4002200E1000800200024082200D60020008E
:102FD40023082200D5000800200024082200D8007D
:102FE400200023082200D700080020002408220023
:102FF400DC00200023082200DB0008004D344334A9
:103004005034393438343034333400342534633470
:10301400253475342E342534753400344E344F340D
:1030240052344D3441344C34003441344C344534FE
:0630340052345434003454
:020000040001F9
:04000E00EC37FF3E8E
:00000001FF
