:020000040000FA
:1000000080316328053008007E1480318B1D09285B
:100010000A2812280B1C0D280E28122888314C2083
:10002000803161280B1F1528162861282100111E18
:100030001A281B2827282000111E1F2820282728BF
:1000400022006B088A006A080A00803161282100BA
:10005000911E2B282C2837282000911E302831286B
:1000600037286B088A006A080A008031612821005D
:10007000921D3B283C2848282000921D40284128FA
:100080004828220059088A0058080A00803161284F
:100090002100911D4C284D2853282000911D5128E6
:1000A0005228532841282100121D5728582861281A
:1000B0002000121D5C285D28612889311D218031B6
:1000C00061287E1009008031652834308400883032
:1000D0008500DA3086000130870007308831202023
:1000E0008031FD01E701E801E901203084000130A1
:1000F0008500483088311A208031A03084000130DA
:100100008500303088311A2080317E1020008A31FD
:10011000472A2100AB002000580886008701403F95
:10012000DA00413FDB005A0884005B0885001200BA
:10013000253A031D9C289D28AC2958088600870174
:100140000130810741310318810A2200D001D10119
:100150002000E701E801FF302200D200FF30D30089
:100160002000580886008701403FDA00413FDB004D
:100170005A0884005B0885001200633A031DC128F9
:10018000C228E728580886008701013081074131DD
:100190000318810A59088600870101088400850137
:1001A000023081070008DA005A082100AA002A0854
:1001B0002000DA005A08AF0021002B088531E12524
:1001C000803120003008D9002F08D800D1295808E4
:1001D00086008701403FDA00413FDB005A08840077
:1001E0005B0885001200733A031DF728F8281F29C1
:1001F0005808860087010130810741310318810AC0
:1002000059088600870101088400850102308107B2
:10021000003F2100A800013FA90029082000B000EC
:10022000210028082000AF0021002B088231C322C2
:10023000803120003008D9002F08D800D129580873
:1002400086008701403FDA00413FDB005A08840006
:100250005B0885001200753A031D2F293029752986
:100260005808860087010130810741310318810A4F
:100270005908860087010108840085010230810742
:10028000003F2100A000013FA100A201A301A401A1
:10029000A501A601A70120082000C0002100210817
:1002A0002000C100210022082000C20021002308F4
:1002B0002000C300210024082000C40021002508DC
:1002C0002000C500210026082000C60021002708C4
:1002D0002000C70021002B088131D221803120006D
:1002E0004108D9004008D800D12958088600870164
:1002F000403FDA00413FDB005A0884005B0885007C
:100300001200253A031D85298629A129580886004F
:1003100087010130810741310318810A2530A70088
:100320000030A80021002B082000DA005A08A9009C
:1003300087316F27803101302000D8000030D9008C
:10034000D1295808860087010130810741310318FF
:10035000810AD801D901D129580886008701403F78
:10036000DA00413FDB005A0884005B088500000882
:10037000DC00DD015C08A7005D08A80021002B0857
:100380002000DE005E08A90087316F278031200041
:100390005808860087010130810741310318810A1E
:1003A0009B2908002000C9002200D31BD829D92985
:1003B000DE29FD302000E705FF30E8052200530864
:1003C000803A2000C80080304802031DEA2901302D
:1003D000220052020318ED29EE29F42901302000F1
:1003E000CA000030CB00FC29220053082000CB00BB
:1003F000220052082000CA00220051082000CD002F
:10040000220050082000CC004008CE004108CF0058
:100410004208D0004308D1004408D2004508D30068
:100420004608D4004708D5001F30D6000030D7005A
:100430002300CF017C2AFF302000D607FF30D73DB4
:100440000A30A300A401A501A601A701A801A901E2
:10045000AA014E08AB004F08AC005008AD0051088F
:10046000AE005208AF005308B0005408B100550860
:10047000B20085317025813120002308303EC8004C
:100480005608B03E86000130870048088100FF30E2
:10049000CA07FF30CB3DFF30CC07FF30CD3D0A30DF
:1004A000A300A401A501A601A701A801A901AA0111
:1004B0004E08AB004F08AC005008AD005108AE002C
:1004C0005208AF005308B0005408B1005508B200FC
:1004D0008431EC24813120002308CE002408CF0091
:1004E0002508D0002608D1002708D2002808D3000C
:1004F0002908D4002A08D5002000560857040319FB
:10050000822A832AAF2A4E084F0450045104520411
:10051000530454045504031D8E2A8F2A1B2A4B08AA
:10052000803AC80080304802031D982A01304A02F0
:1005300003189B2A9C2A1B2A20004D08803AC800D9
:1005400080304802031DA62A01304C02031CA92A50
:10055000AA2AAF2A2000E718AE2AAF2A1B2A2000B9
:100560005608B03EC8004808B7004D08B9004C080E
:10057000B80049088631BD26813120003808C10005
:100580003708C00008002000BF00DA3086000130C4
:10059000870034308400003085000730B100160039
:1005A0001A00B10BCF2A3008C1002F08C000400844
:1005B0004104031DDC2ADD2AE12A3430C00000306A
:1005C000C1004108A4004008A3008A315F228231A3
:1005D00020002408C5002308C4002200530820007E
:1005E000C300220052082000C200C31BF82AF92AC7
:1005F0000D2B4308803AB1004508803A3102031DB3
:10060000032B44084202031C062B072B082B0D2B3F
:1006100020004308C5004208C40020004508C3006C
:100620004408C200220051082000BE0022005008E9
:100630002000BD0067181D2B1E2B3E2B302B2030B9
:100640002000A7000030A8003F08B1003108A90031
:1006500087316F27823101302000C4070030C53D4B
:100660004508803AB1003E08803A3102031D3A2B1A
:100670003D084402031C3D2B3E2B1F2B2000BB01D9
:10068000BC015E2B20004008840041088500000862
:10069000B100B2013108A7003208A8003F08B3003A
:1006A0003308A90087316F27823101302000C0074D
:1006B0000030C13D0130BB070030BC3D3C08803AF2
:1006C000B1004308803A3102031D682B42083B0207
:1006D000031C6B2B6C2B422B2000671C702B712B87
:1006E000912B832B20302000A7000030A8003F086A
:1006F000B1003108A90087316F2782310130200015
:10070000C4070030C53D4508803AB1003E08803A34
:100710003102031D8D2B3D084402031C902B912BAD
:10072000722B20004508B0004408AF0008002200EA
:10073000E31C9B2B9C2BAB2B600881390319A12B4D
:10074000A22BAB2B5F308B31962383312200E31039
:1007500028009C015E2C6319AE2BAF2BB02B5E2CB6
:100760002000B6015F308D317725833120003708B6
:100770002200E200200036082200E100D9302100EA
:10078000AF009030B000E130B1009030B2002200F4
:100790005F0807392100EE00EF016E08B3006F0813
:1007A000B40089315321833122008D13D03086006B
:1007B0000130870008302100EE0000301E00EE0BF3
:1007C000DE2B220062082100C30022006108210004
:1007D000C200D03086315226833100302100AF0074
:1007E0009830B000D030B1000130B20089315321CF
:1007F000833122008D176018FE2BFF2B232C5F30D6
:100800008831A7208331003A031D072C082C0E2CB9
:10081000F1302300D8009030D900132CF830230099
:10082000D8009030D90000302100AF009830B000DF
:10083000230059082100B200230058082100B1000C
:10084000893153218331220063118D1364005F309D
:100850008831A7208331003A03192F2C302C392CF2
:10086000D6302100AF009030B00089315321833160
:100870005E2CD1302100AF009030B0006E30B1005E
:100880009030B2000430B3009830B4008931532165
:10089000833122008D179731CF278331003A031916
:1008A000522C532C4B2C22008D13630028009C01EA
:1008B0002200D401D5018E31982683310800F13011
:1008C0002000A3000830A40088315E2084311D3050
:1008D0002000A3000B30A400883167208431200061
:1008E0000E0801392100B50020000E0C890C0139D9
:1008F0002100B6000230B635890B7B2C20000E0C8F
:1009000001390907210036043504B7003708B8005B
:100910002030B50035082000A300D930A4000D30E8
:10092000A5001830A6000E30A7002100380848386E
:100930008C311D2484312000233086000030870054
:100940005F3084000130850009302100B6001600B8
:100950001A00B60BA72C003020000D1A0130210020
:10096000BB00D130AF009030B0003E30B1009030CD
:10097000B200E130B3009030B400893153218431AA
:1009800021003B08031DC52CC62CCB2C2030B90000
:100990009030BA00CF2C5930B9009030BA00D13025
:1009A000AF009030B000E130B1009030B2003A08B2
:1009B000B4003908B30089315321843121003B0848
:1009C000B50035082000B9005F308B31FA2384313F
:1009D0008831F120843108003430860000308700EF
:1009E00008302000B30000301E00B30BF42C2308A5
:1009F0002404250426042704280429042A040319AE
:100A0000022D032D5F2DBC01BC0A122DA335A40DB0
:100A1000A50DA60DA70DA80DA90DAA0D0130B300B7
:100A20003308BC07AA1F152D162D062DB435B50D9C
:100A3000B60DB70DB80DB90DBA0DBB0D2A083202AF
:100A4000031D3C2D29083102031D3C2D28083002CE
:100A5000031D3C2D27082F02031D3C2D26082E02C6
:100A6000031D3C2D25082D02031D3C2D24082C02BE
:100A7000031D3C2D23082B02031C3F2D402D512D1F
:100A80002308AB022408AC3B2508AD3B2608AE3B4F
:100A90002708AF3B2808B03B2908B13B2A08B23BE6
:100AA0003414AA36A90CA80CA70CA60CA50CA40CEF
:100AB000A30C0130BC02031D5E2D5F2D162D3408E2
:100AC000A3003508A4003608A5003708A60038089A
:100AD000A7003908A8003A08A9003B08AA000800A6
:100AE00020002308240425042604270428042904BC
:100AF0002A0403197C2D7D2DD02DB401B40A8C2D30
:100B0000A335A40DA50DA60DA70DA80DA90DAA0D21
:100B10000130B3003308B407AA1F8F2D902D802D0C
:100B20002A083202031DAE2D29083102031DAE2D05
:100B300028083002031DAE2D27082F02031DAE2DFD
:100B400026082E02031DAE2D25082D02031DAE2DF5
:100B500024082C02031DAE2D23082B02031CB12DEB
:100B6000B22DC22D2308AB022408AC3B2508AD3BB7
:100B70002608AE3B2708AF3B2808B03B2908B13B0D
:100B80002A08B23BAA36A90CA80CA70CA60CA50CE7
:100B9000A40CA30C0130B402031DCF2DD02D902D39
:100BA0002B08A3002C08A4002D08A5002E08A600E1
:100BB0002F08A7003008A8003108A9003208AA00B1
:100BC00008002000B800220050085104031DE92D40
:100BD000EA2DF22D51082000B70022005008200015
:100BE000B600FB2D5008FF3E2000B600FF3022006B
:100BF000513D2000B700671CFE2DFF2D0D2E2F0844
:100C0000B100B2013108A7003208A8003808B300CB
:100C10003308A90087316F2785312000B71B112EBB
:100C2000122E132E152EB601B701B401B501292ECF
:100C300020302000A7000030A8003808B10031089B
:100C4000A90087316F27853101302000B4070030BB
:100C5000B53D3508803AB1003708803A3102031DAE
:100C6000332E36083402031C362E372E182E200061
:100C700067183B2E3C2E4A2E2F08B100B2013108D6
:100C8000A7003208A8003808B3003308A90087314C
:100C90006F27853120003408013EAF000030353D1C
:100CA000B00008002000E50020302100C400440806
:100CB0002000E6002100C31F5E2E5F2E712E2D3016
:100CC000C40044082000E60021004308C500420893
:100CD000C400C409C5094408103EC2000030453DA7
:100CE000C300200065082100AF000130B000E930EA
:100CF000B1009030B200200066082100C400C50198
:100D00004408B3004508B4004308C7004208C600C1
:100D10004708C600C701FF304605B500003047054B
:100D2000B6004308C9004208C8000430C936C80CE0
:100D3000890B962E0F3048052000A30000302100BB
:100D400049052000A4006430A5000030A6008B31C6
:100D5000762386312000230E0F392100B7002000B2
:100D6000240EF0392100B7042000240E0F39210091
:100D7000B8008D31A825863108002000BF00671C0F
:100D8000C22EC32ECB2E3F08BA003A08AF00370858
:100D90008C31412486312000B91BCF2ED02ED52E88
:100DA0003908BE003808BD00D72EBD01BE01BB0109
:100DB000BC01EB2E20302000A7000030A8003F0827
:100DC000BA003A08A90087316F2786310130200028
:100DD000BB070030BC3D3C08803ABA003E08803A70
:100DE0003A02031DF52E3D083B02031CF82EF92E96
:100DF000DA2E20006718FD2EFE2E062F3F08BA00BF
:100E00003A08AF0037088C3141248631200037087A
:100E1000A3000130A4008A315F22863120003D0802
:100E20002307B7003E08243DB800080088310E2093
:100E30008731003A03191D2F1E2F4F2F2B2F97316B
:100E4000DD2787316E2F9731E22787316E2F97315B
:100E5000EC2787316E2F22002F08FA007A08F9005C
:100E60000630203E860001308700413F8A00403F27
:100E70000A008731FB00FC017C08003A0319412F6E
:100E8000272F7B08013A0319272F033A03191F2F35
:100E9000013A0319232F073A0319272F272F22007E
:100EA0003D103808FB003708FA00B70A0319B80AE2
:100EB0007A0886007B08870001089731D32787319D
:100EC00001302200B9020030BA3B39083A04031D50
:100ED0006A2F6B2F6D2F06306E2F03300800200015
:100EE00029080319742F752F7A2F2908031D792FCC
:100EF0007A2F7F2F27088831B1208731C52F290805
:100F0000043E86008701160001040319882F892FEB
:100F1000A72F2908043E86008701403FAA00413FD1
:100F2000AB002908023E86008701403FAC00413FEC
:100F3000AD002D08803AAE002B08803A2E02031D2A
:100F4000A32F2A082C020318A62FA72FC52F200095
:100F50002908023E86008701290884008501403F58
:100F60000007AA000131413F003DAB002A0886007E
:100F70002B088700270881002908023E8600870188
:100F80000130810741310318810A08002000E10087
:100F900021002D082000E30021002C082000E200A1
:100FA0002200CE01CF01EA2F6230DF005F08D800B7
:100FB00021002E082000E0006008D900610880317F
:100FC00089208731200058082200CE0720005908C8
:100FD0002200CF3D200062088400630885001200D3
:100FE000031DF32FF42FD42F22004F082100AD0052
:100FF00022004E082100AC000800210091150800D5
:101000001C302100970008002200BD10BC010E30EA
:10101000080000308B315623883108002400160E5A
:10102000890C890C0139080020002408EB002308F2
:10103000EA000800640080010131890B1B2800349C
:10104000FE0012001E00FE0B2128003422003D107D
:101050009731A327883104300800723021009900AD
:10106000980122009601080028346E3475346C34DF
:101070006C342934003422003D1436359731D3279F
:1010800088310330080022003D140314360D9731D7
:10109000D3278831053008002700991E5028512891
:1010A000542889310E2188310800200024082200AC
:1010B000D900200023082200D800080020002408BE
:1010C0002200ED00200023082200EC000800200090
:1010D00024082200E900200023082200E80008007C
:1010E000200024082300E200200023082300E10060
:1010F0000800200024082300E60020002308230025
:10110000E5000800200024082300E4002000230854
:101110002300E3000800200024082200EB00200048
:1011200023082200EA0008002400940108309500FA
:1011300096011330920095120800003020008E1A9C
:101140000130F0005F308B3101238831080020002E
:10115000A3002308043E86000130870001080139FE
:1011600008002000A6002608A5002508A3008D3150
:101170001A25883108007608F1007508F000770814
:10118000F8007808F20000308C316A2488310800B9
:101190002400951ACC28CD28D42894010830950035
:1011A0009601133092009516080020002908A4002B
:1011B0002808A3002A08AB002B08A50002308C31B8
:1011C00094248831080020002908A4002808A300DE
:1011D0002A08AB002B08A50000308C3194248831FC
:1011E00008007E1CF52888319D28003020008E1ACA
:1011F0000130A3005F308B31392388310800220091
:10120000BD1D032904290D297108B8007008B70015
:101210007308BA007208B900BD11080022006C08FA
:101220006D040319142915291A296D088A006C0800
:101230000A008931270099120800200012112200AB
:10124000680869040319252926292B2969088A00B9
:1012500068080A00893108008831942089318F316B
:101260006B27893188312D208931883100208931DF
:1012700089313F2189318F31232789310800F930A5
:1012800028009D009C0120001211210012159A30A7
:101290002000A3001730A4008831672089314F3027
:1012A00028009E000800B1302000E4006408E5003A
:1012B00021003008AD002F08AC0065302000E400AC
:1012C00064082100AE0000308731C627893108004C
:1012D0007908F000FF39031D0030F1000130F20001
:1012E0000030F3008831FF2089310030F500F6002E
:1012F000F7018831BB208931043008007908F000FB
:10130000FF39031D0030F1000130F2000030F3001E
:101310008831FF2089310030F500F600F70188316F
:10132000BB208931023008007908F000FF39031D25
:101330000030F1000230F2000030F3008831FF206D
:1013400089310030F500F600F7018831BB20893182
:10135000023008007908F000FF39031D0030F10069
:101360000230F2000030F3008831FF208931003074
:10137000F500F600F7018831BB2089310430080000
:101380007908F000FF39031D0030F1000130F20050
:101390000030F3008831FF2089310030F500F6007D
:1013A000F7018831BB208931023008007908F0004C
:1013B000FF39031D0030F1000230F2000030F3006D
:1013C0008831FF2089310030F500F600F7018831BF
:1013D000BB208931023008007908F000FF39031D75
:1013E0000030F1000130F2000030F3008831FF20BE
:1013F00089310030F500F600F7018831BB208931D2
:10140000043008007908F000FF39031D0030F100B6
:101410000230F2000030F3008831FF208A310030C2
:10142000F500F600F7018831BB208A31043008004E
:101430002200BD1D1C2A1D2A2E2A2000240822005D
:10144000B800200023082200B70020002608220050
:10145000BA00200025082200B900BD110800392A71
:1014600003302000A5009730890B342AA50B342ABD
:10147000003201302000A3020030A43B230A031DE8
:10148000452A240A031D452A462A302A08008931A4
:101490002C218A318B170B17E8302000A300033072
:1014A000A4008A312F228A3184315F248A312100BD
:1014B0001714833197238A31592A803163282000F9
:1014C0002408A7002308A600692A0130A3070030DA
:1014D000A43D23088400240885001200031D712AFE
:1014E000722A652A26082302A3002708243BA400A9
:1014F00008007908023E86008701403FF000413F26
:10150000F100790886008701403FF200413FF30077
:101510008831FF208A310030F500F600F70188316C
:10152000BB208A31043008007908023E860087011A
:10153000403FF000413FF100790886008701403FBD
:10154000F200413FF3008831FF208A310030F5007E
:10155000F600F7018831BB208A3102300800790893
:10156000023E86008701403FF000413FF1007908CC
:1015700086008701403FF200413FF3008831FF20A1
:101580008A310030F500F600F7018831BB208A313E
:10159000023008007908023E86008701403FF000D3
:1015A000413FF100790886008701403FF200413F4A
:1015B000F3008831FF208A310030F500F600F70192
:1015C0008831BB208A310230080023001908F0005E
:1015D00020006908A83E860001308700700881005D
:1015E0000130F0007008E90708306902031CF92A8D
:1015F000FA2AFB2AE9010130F00070082200DC071A
:101600000800F300730A86000130870004300105EA
:10161000F1007108700603190E2B102B0130112BED
:101620000030F2007308043E860001308700010894
:101630007206FE3972068100080001302200D407CC
:101640000030D53D183054065504031D282B292B96
:101650002B2BE314382B0030550219300319540298
:10166000031C332B342B382B6315D401D5018D1774
:1016700008002000A600260A8600013087000430FA
:101680000105A400240823060319472B492B013028
:101690004A2B0030A5002608043E86000130870052
:1016A00001082506FE392506810008002000A40057
:1016B000A501A50A2200BD185E2B5F2B732BBD145C
:1016C0002000A50124080319662B672B6B2B220031
:1016D000BB01BB0A702B0230A30023082200BB0011
:1016E0009731B8278B312000250808002000A7017A
:1016F000A801231C7C2B7D2B812B2508A7072608FE
:10170000A83D0130A535A60D890B822B0130A436EA
:10171000A30C890B872B23082404031D902B912BEA
:10172000792B2808A4002708A30008002000B8008F
:1017300038088600013087000108B7003708AC0080
:10174000AD01AD0A3808013EAE000130AF000130F6
:10175000B0000030B1003808073E86000130870035
:10176000413F8A00403F0A008B3108002000A4015D
:10177000A40A2200BD18BD2BBE2BD42B3D11FF3077
:101780002000A30023082200B6009731AF278B3139
:101790009731B5278B319731B2278B3122003C0826
:1017A0002000A3002308A40020002408080008301B
:1017B00022006E020318DD2BDE2BF72B5D08463E60
:1017C000860001308700010823009A000130F000F4
:1017D00070082200DD0708305D02031CF02BF12B9E
:1017E000F22BDD010130F0007008EE07F92B21002B
:1017F000111208002000BB007E30BA003B0A8600B0
:10180000013087003A08810581303906031D092C13
:101810000A2C0F2C3B0A86000130870001143B087C
:101820008B3196238B3120003908BA003B0A8600A1
:10183000013087003A08810408002000AD002D081F
:10184000AC002C08AE002308AC002C08AF00B0019F
:10185000B101B2012508B4002408B3002708B6007E
:101860002608B5002E308600003087002330840023
:10187000003085000930AC0016001A00AC0B3C2C7F
:1018800008002000B600B401B501592C3308B0009F
:10189000B1013008A7003108A8002F08B2003208B3
:1018A000A90087316F278C3101302000B407003048
:1018B000B53D34083607B000300886000130870097
:1018C0000108B1003108B3003308031D682C692CEE
:1018D000462C0800F400700871040319702C712C58
:1018E000842C7435203E8600013087007008C03F8C
:1018F0007108C13F7208F30074082C3E8600013065
:10190000870073088100932C7435203E86000130D7
:1019100087009B30C03F1730C13F74082C3E8600C3
:1019200001308700810108002000A700230824045B
:1019300003199B2C9C2CAF2C2735203E86000130B0
:1019400087002308C03F2408C13F2508A6002708B8
:101950002C3E86000130870026088100BE2C2735EA
:10196000203E8600013087009B30C03F1730C13FCA
:1019700027082C3E860001308700810108002200E4
:101980003D100230FA007A08BC00CE2C9731E727D0
:101990008C31EB2C9731EC278C31EB2C2E08FA0094
:1019A0007A08F9000430203E860001308700413F6C
:1019B0008A00403F0A008C31FB00FC017C08003AA1
:1019C0000319E32CCA2C7B08023A0319C62C013AEE
:1019D0000319C62CCA2C08009731AC278C31220081
:1019E0003D1CF32CF42C022D88310E208C31003A52
:1019F0000319FB2CFC2C022D0F302000A000200826
:101A00002200BB0022003B082000A000A101A0355D
:101A1000A10D0030200784009030213D8500013F5A
:101A20008A00003F0A008D312000A2002208220017
:101A3000BB00080022006E0803191F2D202D1A2D4F
:101A40002100111A242D252D2A2D200023082300E2
:101A50009A00452D111220002308A40022005E08E0
:101A6000463E8600013087002000240881000130B6
:101A7000A40024082200DE0708305E02031C412D6A
:101A8000422D432DDE010130EE0221001116080027
:101A90002200BD15582D9731E7278D31762D9731CE
:101AA000A9278D310330762D9731EC278D31762D96
:101AB0002C08FA007A08F90021088A0020080A0098
:101AC0008D31FB00FC017C08003A0319682D542D70
:101AD0007B08013A0319542D033A03194B2D013A9F
:101AE00003194B2D073A03194F2D542D08002000E0
:101AF000BF003F088600013087000108B8003808A1
:101B0000AC003608B9003908AD003D30BA003A08DB
:101B1000AE000230AF000030B0003F08053E860046
:101B200001308700413F8A00403F0A008D3120008C
:101B30003E08B800B9013D08BA00BB013A08BB0035
:101B4000BA0138083A04B60039083B04B700080067
:101B5000B3302000E40064082100BB003008BD0061
:101B60002F08BC00BE01BF01C001C1013208AD0099
:101B70003108AC00BB302000E40064082100AE0056
:101B8000BC308731C6278D3121002D08BA002C08C2
:101B9000B9000230BC3E86008701403F2F07840019
:101BA000413F303D850080013A08B0003908AF0060
:101BB000080020002E08B4000030B5003008B30043
:101BC0002F08B20020002C088F31B4278D31003A45
:101BD0000319EB2DEC2DE22DCA302000A8000A30AD
:101BE000A9003230B1003108AA008831E3208D31DC
:101BF0002D302000A3000030A4000130A5000030EB
:101C0000A6008A3118228D3100302000A800A900DA
:101C1000AA018831D5208D31883109208D318B3151
:101C2000B6238D31013A0319162E172E0F2E0800F8
:101C300020002F08B6002E08B5003108B400300887
:101C4000B30020002C088F31B4278E31003A0319DD
:101C50002A2E2B2E212E79302000A8000A30A90030
:101C60003330B2003208AA008831E3208E312D30A3
:101C70002000A3000030A4000130A5000030A60021
:101C80008A3118228E3100302000A800A900AA0154
:101C90008831D5208E31883109208E318B31B623A1
:101CA0008E31013A0319552E562E4E2E0800200073
:101CB00069083E3E860001308700810123001D1D1A
:101CC000622E632E702E200069083E3E8600013091
:101CD00087008114230066088A0065080A008E3197
:101CE00023009D1C742E752E822E200069083E3E16
:101CF0008600013087000115230064088A0063080C
:101D00000A008E31200069083E3E860001308700BF
:101D1000010803198C2E8D2E942E230062088A0050
:101D200061080A008E31972E8A31E5228E31080033
:101D3000200083199C2E9D2EA32E68302100EA00DE
:101D40009030EB00A82E9A302100EA009030EB0092
:101D50002000031AAC2EAD2EB32EBB302100EC00B8
:101D60009030ED00B82EAB302100EC009030ED004B
:101D7000C230AF000030B000C830B1009030B200C7
:101D80006D08B4006C08B3006B08B6006A08B500B3
:101D90008D31A8258E31D1302100AF009030B000B8
:101DA0008830B1009030B200C230B3000030B400CF
:101DB000893153218E3108009731A6278E31FA00E0
:101DC000220037088600380887007A088100013031
:101DD000B7070030B83D0130B9020030BA3B3908CE
:101DE0003A040319F42EF52EFA2E9731C7278E31B7
:101DF0000530222FBD15042F9731FB278E31222F5E
:101E00009731F6278E31222F2C08FA007A08F90034
:101E100021088A0020080A008F31FB00FC017C08A1
:101E2000003A0319142F002F7B08013A0319002FE1
:101E3000033A0319FC2E013A0319FC2E073A031941
:101E4000002F002F08002100911257302000A3001E
:101E50000E30A400883114208F3121001112D730A8
:101E60002000A3000B30A40088318B208F31083074
:101E700023009F0080309D0024309E0022309B0074
:101E80009C0198302000A3001730A40088317920ED
:101E90008F31BF302000A3001730A400883182208A
:101EA0008F31BB302000A3001730A4008831702090
:101EB0008F312200DB01DE01DD0108302000A500AA
:101EC00025082200EE002000E901FD012200DC01CE
:101ED00021009116080022008C018D018E0108302E
:101EE00021009000FF308C007F308D00BF308E00CD
:101EF000803023008E002F308D003F308C00240076
:101F000090018D018C018E012100951725008C0117
:101F10008D018E01FF3026008C00FF308D00FF30D8
:101F20008E00FF3027008C00FF308D00FF308E00C8
:101F30000830900099129816971699302000A30047
:101F40001730A40088315E208F318B1514303C008F
:101F5000A10010303D00A3001130A4001430A600F1
:101F600013303C00A00008002000A600A701A70A2B
:101F700022003D19BC2FBD2FFD2F20002608A500F3
:101F800025082200B600BD103D153D100E30200082
:101F9000A50025082200BB00F430B4000130B500D4
:101FA000BD159B30A0001730A100AC019B30A200F2
:101FB0001730A300AD019B30A4001730A500AE017F
:101FC0009B30A6001730A700AF010230A8000030F8
:101FD000A900B001CB302000A3001730A400883145
:101FE00055208F319731AF278F318831C8208F31FD
:101FF0008731FD278F312000A70120002708080026
:10200000D8341734433408343B3408341634073496
:10201000DC340E342634083448340D34DD341734BF
:10202000E2341734E7341734EC341734F13417340E
:10203000F6341734FB34173404340834BF340C340A
:1020400020344D346F34643465343D3443344F347C
:102050004E34543449344E3455344F34553453345B
:10206000203441344C344534523454346E346F345B
:1020700053344C34453445345034003453345434A0
:102080004134523454342034543465346D34703413
:102090006534723461347434753472346534203488
:1020A000533445344E3453344F3452343A3420345C
:1020B000003420344D346F34643465343D344F344F
:1020C0004E3445345F34533448344F345434203420
:1020D00061346634743465347234203453344C348F
:1020E0004534453450340034003400341A340D344F
:1020F00000340034003400348B34083457340E3448
:1021000014340834CF341734D7340B3423340F3419
:102110002E342E342E34573441344B344534553418
:1021200050342034533454344134543455345334BB
:102130003D34003450346F34773465347234553460
:10214000703420347C34203443344C34523457348B
:1021500044345434003441344C34453452345434CF
:10216000203469346E3474346534723472347534A6
:102170007034743400345734443454342034543478
:1021800069346D3465342D346F34753474340034EF
:102190005B34253473342C342034253473345D346B
:1021A0000034233425347334253473340D340A3425
:1021B0000034253473343A34253475343B342034B8
:1021C00000344D34433450343934383430343334BB
:1021D000003425346334253475342E342534753475
:1021E00000344E344F3452344D3441344C34003486
:0C21F00041344C34453452345434003433
:102F3000080008000800013008002400961408006A
:102F40002400161508002400961508002400110816
:102F500008002000911508002000911108002000B1
:102F60009111080024009512080021009111080019
:102F70002400161408008A31E52297310800230046
:102F80001D121D16080024009616161608002400AF
:102F90009612161608008C31EC2497310800230095
:102FA0001E0C01390800F000700824009100080090
:102FB0002200BD10BC010E30080097319D279731CB
:102FC0000130080097319D27973102300800973172
:102FD0009D279731013008009731A02797310030A5
:102FE00008009731C7279731053008009731C3276C
:102FF00097310A3008009731C3279731093008000C
:1030000025347334203400342E342E342E340034DE
:020000040001F9
:04000E00EC37FF3E8E
:00000001FF
