:020000040000FA
:1000000080316428053008007E1480318B1D09285A
:100010000A2812280B1C0D280E28122897319D271C
:10002000803162280B1F1528162862282100111E16
:100030001A281B2827282000111E1F2820282728BF
:10004000220060088A005F080A00803162282100CF
:10005000911E2B282C2838282000911E302831286A
:10006000382822005E088A005D080A008031622874
:100070002100921D3C283D2849282000921D41283E
:1000800042284928210056088A0055080A00803174
:1000900062282100911D4D284E2854282000911DD2
:1000A00052285328542842282100121D5828592824
:1000B00062282000121D5D285E28622888315E209B
:1000C000803162287E1009008031662885308400E6
:1000D0009730850063308600013087000730973104
:1000E00071278031FD01EA01EB01EC01CB30840086
:1000F000003085001A3097316B2780312030840022
:1001000001308500353097316B278031A030840075
:1001100001308500283097316B2780317E10200018
:100120008931D1292100AD002000580886008701BF
:10013000403FDA00413FDB005A0884005B0885003D
:100140001200253A031DA528A628322A5808860041
:1001500087010130810741310318810A2100CD0157
:10016000CE012000EA01EB01FF302100CF00FF307B
:10017000D0002000580886008701403FDA00413F48
:10018000DB005A0884005B08850012002A3A031D30
:10019000CA28CB28ED28580886008701013081073E
:1001A00041310318810A590886008701010884003B
:1001B000850102308107003F2100CD00013FCE00C4
:1001C000CE1FE328E428362920006A142100CD0937
:1001D000CE09CD0A0319CE0A3629580886008701B0
:1001E000403FA900413FAA00853108258031200009
:1001F0002A082100CE00200029082100CD0009296D
:10020000200058088600870101308107413103181A
:10021000810A2000580886008701403FDA00413FEC
:10022000DB005A0884005B0885000008D03EDC0033
:10023000FF3003180030DD0000305D020A30031982
:100240005C02031C24292629013027290030DE0006
:10025000DF015E082100AB0020005F082100AC0038
:100260002B082C04031D35293629002920005808A5
:1002700086008701403FDA00413FDB005A088400D6
:100280005B0885001200633A031D472948296D2940
:100290005808860087010130810741310318810A1F
:1002A0005908860087010108840085010230810712
:1002B0000008DA005A082100AA002A082000DA0003
:1002C0005A08AF0021002D088631AC26803120006D
:1002D0003008D9002F08D800572A5808860087010F
:1002E000403FDA00413FDB005A0884005B0885008C
:1002F0001200733A031D7D297E29A529580886001E
:1003000087010130810741310318810A59088600AD
:10031000870101088400850102308107003F210028
:10032000A800013FA90029082000B00021002808EA
:100330002000AF0021002D088431342480312000BA
:100340003008D9002F08D800572A5808860087019E
:10035000403FDA00413FDB005A0884005B0885001B
:100360001200753A031DB529B629FB2958088600E5
:1003700087010130810741310318810A590886003D
:10038000870101088400850102308107003F2100B8
:10039000A000013FA100A201A301A401A501A601A3
:1003A000A70120082000C000210021082000C10072
:1003B000210022082000C200210023082000C300E1
:1003C000210024082000C400210025082000C500C9
:1003D000210026082000C600210027082000C700B1
:1003E00021002D0882315822803120004108D90097
:1003F0004008D800572A580886008701403FDA0095
:10040000413FDB005A0884005B0885001200253A52
:10041000031D0B2A0C2A272A580886008701013061
:10042000810741310318810A2530A7000030A80058
:1004300021002D082000DA005A08A9008E31FE267E
:10044000803101302000D8000030D900572A5808E8
:10045000860087010130810741310318810AD801E4
:10046000D901572A580886008701403FDA00413FEA
:10047000DB005A0884005B0885000008DC00DD0111
:100480005C08A7005D08A80021002D082000DE0000
:100490005E08A9008E31FE268031200058088600B3
:1004A00087010130810741310318810A212A0800A0
:1004B0002000C9002100D01B5E2A5F2A642AFD307B
:1004C0002000EA05FF30EB0521005008803A2000AB
:1004D000C80080304802031D702A013021004F02FD
:1004E0000318732A742A7A2A01302000CA000030C7
:1004F000CB00822A210050082000CB0021004F08A9
:100500002000CA0021004E082000CD0021004D0827
:100510002000CC004008CE004108CF004208D000A7
:100520004308D1004408D2004508D3004608D4004F
:100530004708D5001F30D6000030D7002300C70180
:10054000022BFF302000D607FF30D73D0A30A30032
:10055000A401A501A601A701A801A901AA014E08AD
:10056000AB004F08AC005008AD005108AE00520877
:10057000AF005308B0005408B1005508B2008631EE
:100580003B26823120002308303EC8005608A83E92
:1005900086000130870048088100FF30CA07FF301D
:1005A000CB3DFF30CC07FF30CD3D0A30A300A40186
:1005B000A501A601A701A801A901AA014E08AB0047
:1005C0004F08AC005008AD005108AE005208AF0013
:1005D0005308B0005408B1005508B2008531B72562
:1005E000823120002308CE002408CF002508D00047
:1005F0002608D1002708D2002808D3002908D400F3
:100600002A08D5002000560857040319082B092B87
:10061000352B4E084F045004510452045304540423
:100620005504031D142B152BA12A4B08803AC80032
:1006300080304802031D1E2B01304A020318212B73
:10064000222BA12A20004D08803AC80080304802A1
:10065000031D2C2B01304C02031C2F2B302B352B70
:100660002000EA18342B352BA12A20005608A83E7A
:10067000C8004808B7004D08B9004C08B800490840
:100680008F31A727823120003808C1003708C00009
:1006900008002100E01C4D2B4E2B5D2B5D0881399D
:1006A0000319532B542B5D2BDC308A316F2283319D
:1006B0002100E01028009C01332C6019602B612B75
:1006C000622B332C2000B501DC308C318B2483313C
:1006D000200036082100DF00200035082100DE0060
:1006E0008230AE009030AF000030B0009830B100E2
:1006F0005C080739C900CA014908B2004A08B300BA
:1007000089312C218331C8308600013087000830C0
:100710002100C90000301E00C90B8B2B5F08C000F0
:100720005E08BF00C83087311D2783312430210087
:10073000AE009830AF00C830B0000130B100893150
:100740002C21833121005D18A62BA72BCB2BDC306D
:100750009731AF278331003A031DAF2BB02BB62B57
:1007600017302300D0009830D100BB2B1E3023005F
:10077000D0009830D10010302100AE009830AF008A
:10078000230051082100B100230050082100B000CF
:1007900089312C2183314B302100AE009030AF00E5
:1007A00089312C2183312100601122008D136400D6
:1007B000DC309731AF278331003A031DE02BE12B6A
:1007C000332C98302100AE009030AF0089312C21BD
:1007D000833122008D1797312B278331003A03197B
:1007E000F22BF32BEB2B22008D13630028009C01CE
:1007F0002100D101D20120008319FF2B002C062CEF
:1008000030302300D2000030D3000B2C31302300D5
:10081000D2000030D3002000031A0F2C102C162C0D
:1008200030302300D4000030D5001B2C31302300A1
:10083000D4000030D50028302100AE009030AF0049
:10084000230055082100B100230054082100B00006
:10085000230053082100B300230052082100B200F6
:1008600089312C21833108002000BF0063308600CD
:100870000130870034308400003085000730B1003B
:1008800016001A00B10B402C3008C1002F08C00020
:1008900040084104031D4D2C4E2C522C3430C00016
:1008A0000030C1004108A4004008A3008A311C2286
:1008B000843120002408C5002308C400210050080A
:1008C0002000C30021004F082000C200C31B692C78
:1008D0006A2C7E2C4308803AB1004508803A3102E8
:1008E000031D742C44084202031C772C782C792CAD
:1008F0007E2C20004308C5004208C40020004508A3
:10090000C3004408C20021004E082000BE002100A0
:100910004D082000BD006A188E2C8F2CAF2CA12C06
:1009200020302000A7000030A8003F08B1003108A7
:10093000A9008E31FE26843101302000C40700302A
:10094000C53D4508803AB1003E08803A3102031D9A
:10095000AB2C3D084402031CAE2CAF2C902C200085
:10096000BB01BC01CF2C2000400884004108850059
:100970000008B100B2013108A7003208A8003F0802
:10098000B3003308A9008E31FE26843101302000E7
:10099000C0070030C13D0130BB070030BC3D3C0802
:1009A000803AB1004308803A3102031DD92C420835
:1009B0003B02031CDC2CDD2CB32C20006A1CE12C38
:1009C000E22C022DF42C20302000A7000030A800DB
:1009D0003F08B1003108A9008E31FE268431013074
:1009E0002000C4070030C53D4508803AB1003E08EC
:1009F000803A3102031DFE2C3D084402031C012DE8
:100A0000022DE32C20004508B0004408AF00080088
:100A10002000B601B701AF01B001122D0130A907C6
:100A20000030AA3DB501B50A290884002A088500CE
:100A30001200203A03191D2D1E2D332D2908840084
:100A40002A0885000008F73EAB00FF30031800308D
:100A5000AC0000302C02053003192B02031C312D91
:100A6000322D332DB5013508AB00AC012B08B10098
:100A70002C08B20031083204031D3F2D402D0E2DED
:100A80004A2D0130AF000030B0000130A90700301E
:100A9000AA3D7E2D290884002A0885000008AB00A5
:100AA000AC012C08003A0319562D7E2D2B082B3A49
:100AB0000319452D063A0319412D7E2D290884007E
:100AC0002A0885000008AB003708A4003608A300F8
:100AD0000A30A5000030A6008A31AD228531200001
:100AE0002408AD002B082302AC00031CAD032C0826
:100AF000303EB60000302D3DB700452D290884005A
:100B00002A0885000008D03EAB00FF3003180030F3
:100B1000AC0000302C020A3003192B02031C912D6B
:100B2000932D0130942D0030AD00AE012D08B3009F
:100B30002E08B40033083404031D9F2DA02D5E2D14
:100B40002F083004031DA52DA62DB22D3609AB00AC
:100B50003709AC00AB0A0319AC0A2B08A9002C0812
:100B6000AA00B62D3708AA003608A90008003430BC
:100B700086000030870008302000B30000301E00DF
:100B8000B30BBF2D230824042504260427042804BE
:100B900029042A040319CD2DCE2D2A2EBC01BC0A0E
:100BA000DD2DA335A40DA50DA60DA70DA80DA90D2E
:100BB000AA0D0130B3003308BC07AA1FE02DE12DB8
:100BC000D12DB435B50DB60DB70DB80DB90DBA0DA3
:100BD000BB0D2A083202031D072E29083102031D0E
:100BE000072E28083002031D072E27082F02031D99
:100BF000072E26082E02031D072E25082D02031D91
:100C0000072E24082C02031D072E23082B02031C89
:100C10000A2E0B2E1C2E2308AB022408AC3B250801
:100C2000AD3B2608AE3B2708AF3B2808B03B290860
:100C3000B13B2A08B23B3414AA36A90CA80CA70C65
:100C4000A60CA50CA40CA30C0130BC02031D292E7C
:100C50002A2EE12D3408A3003508A4003608A5008B
:100C60003708A6003808A7003908A8003A08A900E4
:100C70003B08AA00080020002308240425042604B9
:100C80002704280429042A040319472E482E9B2EE2
:100C9000B401B40A572EA335A40DA50DA60DA70DBA
:100CA000A80DA90DAA0D0130B3003308B407AA1F7F
:100CB0005A2E5B2E4B2E2A083202031D792E29084C
:100CC0003102031D792E28083002031D792E2708D2
:100CD0002F02031D792E26082E02031D792E2508CA
:100CE0002D02031D792E24082C02031D792E2308C2
:100CF0002B02031C7C2E7D2E8D2E2308AB02240894
:100D0000AC3B2508AD3B2608AE3B2708AF3B280887
:100D1000B03B2908B13B2A08B23BAA36A90CA80C63
:100D2000A70CA60CA50CA40CA30C0130B402031D47
:100D30009A2E9B2E5B2E2B08A3002C08A4002D08B6
:100D4000A5002E08A6002F08A7003008A80031082B
:100D5000A9003208AA0008002000B80021004D08B0
:100D60004E04031DB42EB52EBD2E4E082000B70034
:100D700021004D082000B600C62E4D08FF3E200081
:100D8000B600FF3021004E3D2000B7006A1CC92E7E
:100D9000CA2ED82E2F08B100B2013108A7003208A0
:100DA000A8003808B3003308A9008E31FE2686312A
:100DB0002000B71BDC2EDD2EDE2EE02EB601B701A3
:100DC000B401B501F42E20302000A7000030A800A7
:100DD0003808B1003108A9008E31FE268631013075
:100DE0002000B4070030B53D3508803AB10037081F
:100DF000803A3102031DFE2E36083402031C012FF7
:100E0000022FE32E20006A18062F072F152F2F0818
:100E1000B100B2013108A7003208A8003808B300B9
:100E20003308A9008E31FE26863120003408013EA9
:100E3000AF000030353DB00008002100C700203071
:100E4000C1004108C800C01F262F272F372F2D3083
:100E5000C1004108C8004008C2003F08C100C109E4
:100E6000C2094108103EBF000030423DC0004008AA
:100E7000C2003F08C1000430C236C10C890B3C2FB0
:100E80000F3041052000A300003021004205200062
:100E9000A4006430A5000030A6008A31AD2287315D
:100EA0002000230E0F392100C5002000240EF03948
:100EB0002100C5042000240E0F392100C60008308F
:100EC000AE009830AF004808C100C2014108B00030
:100ED0004208B1004008C4003F08C3004408C300F2
:100EE000C401FF304305B20000304405B30046089A
:100EF000B5004508B40047088C31EB248731080061
:100F000005302000A3000830A4009731B8278731AE
:100F100052302000A3000A30A4009731C127873146
:100F200020302100B40034082000A3002330A400A6
:100F30000D30A5005F30A6000D30A70048308B3182
:100F40003223873120002330860000308700DC30D8
:100F500084000030850009302100B50016001A0019
:100F6000B50BAE2F003020000D1A01302100B80063
:100F70003808031DBC2FBD2FC22F8D30B600903016
:100F8000B700C62FA230B6009030B7000030AE00D8
:100F90009030AF000030B0009830B1003708B30097
:100FA0003608B20089312C21873121003808B4007D
:100FB00034082000B800DC308731E0278731080092
:100FC0002000BA007E30B9003A0A8600870139084D
:100FD000810581303806031DEE2FEF2FF32F3A0ADB
:100FE0008600870101143A088A316F228731200078
:100FF0003808B9003A0A86008701390881040800D8
:1010000000308A318D2288310800003020008E1A8D
:101010000130F000DC308A310222883108002000E3
:10102000A6002608A5002508A3008C3101248831DC
:1010300008007608F1007508F0007708F8007808D5
:10104000F20000308B317F23883108002400951A8C
:101050002A282B2832289401083095009601133055
:1010600092009516080020002908A4002808A30073
:101070002A08AB002B08A50002308B31A923883148
:10108000080020002908A4002808A3002A08AB00B3
:101090002B08A50000308B31A923883108002200DD
:1010A000610862040319552856285B2862088A00E3
:1010B00061080A00883127009912080020001211E7
:1010C0002200550856040319662867286C2856081C
:1010D0008A0055080A0088310800F3002200BC1D70
:1010E000722873287C287308F2007208B700710810
:1010F000B9007008B800BC1108000130F0000030E1
:10110000F100790888316D2088310030F500F60053
:10111000F701883119208831043008000130F000CF
:101120000030F100790888316D2088310030F500F9
:10113000F600F701883119208831023008000230AA
:10114000F0000030F100790888316D2088310030DE
:10115000F500F600F70188311920883102300800C7
:101160000230F0000030F100790888316D208831BC
:101170000030F500F600F70188311920883104307D
:1011800008000130F0000030F100790888316D204E
:1011900088310030F500F600F701883119208831D8
:1011A000023008000230F0000030F1007908883188
:1011B0006D2088310030F500F600F70188311920E4
:1011C0008831023008000130F0000030F100790869
:1011D00088316D2088310030F500F600F701883144
:1011E00019208831043008000230F0000030F1008E
:1011F000790888316D2088310030F500F600F7015C
:10120000883119208831043008009731F727893157
:101210008E316926893197317E27893197312F2781
:1012200089318931182189318E312226893108008E
:10123000F93028009D009C01200012112100121598
:10124000F3302000A3001630A4009731C127893164
:101250004F3028009E000800B0302000E8006808E9
:10126000E90021002F082000E10021002E082000C5
:10127000E0006930E8006808E20000308C31BA24F0
:10128000893108002000A6002200BC1D48294929F8
:10129000582920002608A50025082200B7002000B4
:1012A00024082200B900200023082200B800BC1145
:1012B0000800790886008701403FF000413FF100B7
:1012C0007908023E86008701010888316D20893146
:1012D0000030F500F600F70188311920893104301B
:1012E0000800790886008701403FF000413FF10087
:1012F0007908023E86008701010888316D20893116
:101300000030F500F600F7018831192089310230EC
:101310000800790886008701403FF000413FF10056
:101320007908023E86008701010888316D208931E5
:101330000030F500F600F7018831192089310230BC
:101340000800790886008701403FF000413FF10026
:101350007908023E86008701010888316D208931B5
:101360000030F500F600F70188311920893102308C
:101370000800C32903302000A5009730890BBE293F
:10138000A50BBE29003201302000A3020030A43B8F
:10139000230A031DCF29240A031DCF29D029BA29E6
:1013A00008008931052189318B170B17E83020009F
:1013B000A3000330A4008931B92189318731802706
:1013C000893121001714833149238931E329803180
:1013D000642820002308D03EA500FF30243DA6004D
:1013E000003026020A3003192502031CF829FA29C5
:1013F0000130FB290030A700A8012708A300280816
:10140000A4000800F300730A860087010430010578
:10141000F1007108700603190E2A102A0130112AF2
:101420000030F2007308043E86008701010872064E
:10143000FE3972068100080020002408A700230856
:10144000A600262A0130A3070030A43D230884000B
:10145000240885001200031D2E2A2F2A222A26087E
:101460002302A3002708243BA40008002300190836
:10147000F00020006C08453E8600013087007008AF
:1014800081000130F0007008EC0708306C02031C8A
:101490004A2A4B2A4C2AEC010130F0007008210046
:1014A000D907080001302100D1070030D23D1830A3
:1014B00051065204031D5D2A5E2A602AE0146E2A3A
:1014C00000305202193003195102031C682A692A9C
:1014D0006E2A6015D101D20122008D17080020006C
:1014E000B7003708860087010108B5003508AC0051
:1014F000AD01AD0A3708013EB6003608AE00013036
:10150000AF000030B0003708073E86008701413F3A
:101510008A00403F0A008A3108002000A400A5018B
:10152000A50A2200BC18952A962AAA2ABC142000D3
:10153000A501240803199D2A9E2AA22A2200BA0185
:10154000BA0AA72A0230A30023082200BA00973162
:1015500011278A312000250808002000A701A801D2
:10156000231CB32AB42AB82A2508A7072608A83DB1
:101570000130A535A60D890BB92A0130A436A30C7C
:10158000890BBE2A23082404031DC72AC82AB02AAF
:101590002808A4002708A30008002000A401A40A2A
:1015A0002200BC18D42AD52AEB2A3C11FF30200097
:1015B000A30023082200B600973108278A3197310B
:1015C0000E278A3197310B278A3122003B082000F1
:1015D000A3002308A40020002408080008302100EC
:1015E00065020318F42AF52A0E2B5A084D3E860090
:1015F00001308700010823009A000130F0007008D4
:101600002100DA0708305A02031C072B082B092B8C
:10161000DA010130F0007008E5070F2B1112080005
:101620002000A701A70A2030230624040319192B40
:101630001A2B2A2B2308F73EA500FF30243DA600D5
:1016400000302602053003192502031C282B292B04
:101650002A2BA7012708A500A6012508A300260814
:10166000A40008002000AD002D08AC002C08AE003E
:101670002308AC002C08AF00B001B101B20125086D
:10168000B4002408B3002708B6002608B5002E30A1
:101690008600003087002330840000308500093048
:1016A000AC0016001A00AC0B512B08002000B6004D
:1016B000B401B5016E2B3308B000B1013008A700AA
:1016C0003108A8002F08B2003208A9008E31FE268A
:1016D0008B3101302000B4070030B53D34083607A7
:1016E000B00030088600013087000108B1003108E1
:1016F000B3003308031D7D2B7E2B5B2B0800F40009
:10170000700871040319852B862B992B7435203EA4
:101710008600013087007008C03F7108C13F720821
:10172000F30074082C3E86000130870073088100A6
:10173000A82B7435203E860001308700F430C03F6E
:101740001630C13F74082C3E8600013087008101AD
:1017500008002000A700230824040319B02BB12B94
:10176000C42B2735203E8600013087002308C03F68
:101770002408C13F2508A60027082C3E860001301A
:10178000870026088100D32B2735203E86000130B4
:101790008700F430C03F1630C13F27082C3E86003A
:1017A000013087008101080022003C100230FA005D
:1017B0007A08BB00E32B973147278B31002C9731F8
:1017C0004C278B31002C2E08FA007A08F9000430DF
:1017D000203E860001308700413F8A00403F0A00DA
:1017E0008B31FB00FC017C08003A0319F82BDF2B3E
:1017F0007B08023A0319DB2B013A0319DB2BDF2BA1
:101800000800210065080319062C072C012C111A69
:101810000A2C0B2C102C2000230823009A002B2CC0
:10182000111220002308A40021005B084D3E860011
:10183000013087002000240881000130A400240822
:101840002100DB0708305B02031C272C282C292CE5
:10185000DB010130E5022100111608009731052750
:101860008C3122003C1C352C362C442C97316527BA
:101870008C31003A03193D2C3E2C442C0F302000B3
:10188000A00020082200BA0022003A082000A00090
:10189000A101A035A10D4E30200784009030213DDC
:1018A0008500013F8A00003F0A008C312000A20021
:1018B00022082200BA0008002200BC156C2C9731C7
:1018C00047278C318A2C973102278C3103308A2CA0
:1018D00097314C278C318A2C2C08FA007A08F900B1
:1018E00021088A0020080A008C31FB00FC017C08DA
:1018F000003A03197C2C682C7B08013A0319682CE8
:10190000033A03195F2C013A03195F2C073A0319B4
:10191000632C682C08002000BE003E08860087016A
:101920000108B7003708AC003508B8003808AD002A
:101930003C30B9003908AE000230AF000030B000D2
:101940003E08053E86008701413F8A00403F0A006D
:101950008C3120003D08B700B8013C08B900BA013D
:101960003908BA00B90137083904B50038083A0413
:10197000B60008002000E5006108E7006008E60006
:101980002100CB01CC01D82C6630E3006308D800DD
:101990006208E4006408D9006508803192208C3127
:1019A000200058082100CB07200059082100CC3D19
:1019B000200066088400670885001200031DE12CE2
:1019C000E22CC42C21004C082000E10021004B082F
:1019D0002000E00008002100B800B0302000E8003E
:1019E00068082100B90038082000E80068082100D4
:1019F000BA00BB01BC01BD01BE012F082000E100FF
:101A000021002E082000E000B930E8006808E2005C
:101A1000BA308C31BA248C31200061082100B70023
:101A2000200060082100B6003B0838072000E800CD
:101A30006808860001308700810121003708AF0067
:101A40003608AE00080020002E08B1003108B400AE
:101A50003008B3002F08B20020002C088E31B226C7
:101A60008D31003A0319352D362D2C2DA130200053
:101A7000A8000930A9003230B1003108AA0088312D
:101A800041208D3101302000A3000030A4002D3012
:101A9000893142218D3100302000A800A900AA011F
:101AA000883133208D31883100208D318A31CD222B
:101AB0008D31013A03195D2D5E2D562D0800200051
:101AC0002E08B1003108B4003008B3002F08B2006E
:101AD00020002C088E31B2268D31003A0319712D69
:101AE000722D682D59302000A8000930A90032302D
:101AF000B1003108AA00883141208D310130200029
:101B0000A3000030A4002D30893142218D310030F6
:101B10002000A800A900AA01883133208D31883126
:101B200000208D318A31CD228D31013A0319992D52
:101B30009A2D922D080020006C083D3E8600013051
:101B40008700810123001D1DA62DA72DB42D200087
:101B50006C083D3E860001308700811422005C083D
:101B60008A005B080A008D3123009D1CB82DB92D19
:101B7000C62D20006C083D3E86000130870001150F
:101B800022005A088A0059080A008D3120006C088A
:101B90003D3E86000130870001080319D02DD12D6C
:101BA000D82D220058088A0057080A008D31DB2DF5
:101BB0008A3136228D3108009631FF268D31FA00A8
:101BC00022003708860087017A0881000130FA0078
:101BD0007A08B7070130B8020030B93B3808390439
:101BE0000319F32DF42DF92D973123278D3105306D
:101BF000212EBC15032E97315B278D31212E973175
:101C000056278D31212E2C08FA007A08F900210878
:101C10008A0020080A008E31FB00FC017C08003A93
:101C20000319132EFF2D7B08013A0319FF2D033AE8
:101C30000319FB2D013A0319FB2D073A0319FF2D58
:101C4000FF2D0800210091129B302000A3000D30D1
:101C5000A4009731E5278E3121001112EE302000CB
:101C6000A3000A30A4009731EE278E3108302300FC
:101C70009F0080309D0024309E0022309B009C01FC
:101C8000F1302000A3001630A4009731D3278E3105
:101C90001B302000A3001730A4009731DC278E31C1
:101CA00017302000A3001730A4009731CA278E31C7
:101CB0002100D801DB01DA0108302000A500250849
:101CC0002100E5002000EC01FD012100D901911661
:101CD000080022008C018D018E0108302100900047
:101CE000FF308C007F308D00BE308E0080302300AE
:101CF0008E002F308D003F308C00240090018D012C
:101D00008C018E012100951725008C018D018E011B
:101D1000FF3026008C00FF308D00FF308E00FF303A
:101D200027008C00FF308D00FF308E0008309000BF
:101D3000991298169716F2302000A3001630A400CE
:101D40009731B8278E318B1514303C00A10010302C
:101D50003D00A3001130A4001430A60013303C0055
:101D6000A00008002000A600A701A70A22003C1935
:101D7000BA2EBB2EFB2E20002608A5002508220027
:101D8000B600BC103C153C100E302000A500250804
:101D90002200BA00F430B4000130B500BC15F430B4
:101DA000A0001630A100AC01F430A2001630A30050
:101DB000AD01F430A4001630A500AE01F430A60049
:101DC0001630A700AF010230A8000030A900B00112
:101DD00027302000A3001730A4009731A6278E31AA
:101DE000973108278E31883126208E31973114277C
:101DF0008E312000A70120002708080020002908B4
:101E00000319032F042F092F2908031D082F092F59
:101E10000E2F270888310F208E314F2F2908033EBF
:101E200086008701160001040319172F182F352F7C
:101E30002908033E86008701403FAA00413FAB00CE
:101E4000290A86008701403FAC00413FAD002D08C4
:101E5000803AAE002B08803A2E02031D312F2A084B
:101E60002C020318342F352F4F2F20002708AA00EB
:101E7000290886008701290A8400850100080107D6
:101E8000AB002B088600013087002A088100290A50
:101E9000860087010130810741310318810A08005B
:101EA000973165278F31003A0319572F582F892F03
:101EB000652F97313D278F31A62F973142278F31DC
:101EC000A62F97314C278F31A62F22002F08FA001A
:101ED0007A08F9000630203E860001308700413F35
:101EE0008A00403F0A008F31FB00FC017C08003A69
:101EF00003197B2F612F7B08013A0319612F033AE5
:101F00000319592F013A03195D2F073A0319612F5D
:101F1000612F22003C101730203E860001308700E0
:101F2000403F84008501810A0008973133278F31B3
:101F300001302200B8020030B93B38083904031DD3
:101F4000A22FA32FA52F0630A62F033008002000B4
:101F5000BF006A1CAC2FAD2FB52F3F08BA003A085E
:101F6000AF0037088B3156238F312000B91BB92FB2
:101F7000BA2FBF2F3908BE003808BD00C12FBD01E0
:101F8000BE01BB01BC01D52F20302000A7000030CE
:101F9000A8003F08BA003A08A9008E31FE268F310A
:101FA00001302000BB070030BC3D3C08803ABA003D
:101FB0003E08803A3A02031DDF2F3D083B02031C16
:101FC000E22FE32FC42F20006A18E72FE82FF02F0D
:101FD0003F08BA003A08AF0037088B3156238F31DB
:101FE00020003708A3000130A4008A311C228F3161
:101FF00020003D082307B7003E08243DB800080034
:1020000053345434413452345434203454346534C9
:102010006D347034653472346134743475347234B0
:1020200065342034533445344E3453344F345234B1
:102030003A342034253473342E3420344D346F3404
:10204000643465343D34253473340A340D3400343B
:102050002E342E342E34573441344B34453420340E
:10206000553450342034533454344134543455347A
:10207000533420345B346E3454344F347C346E34F7
:10208000503444345D3420343D34203425346334BA
:102090002534633420340A340D3400343834173492
:1020A000943417348C34173450340F34DC340D34FA
:1020B000773417345C340C343D34173442341734DD
:1020C000473417344C3417345134173456341734DA
:1020D0005B34173460341734D4340B340034003498
:1020E00001340C340034003400340034EE3417343E
:1020F0009B340D34E53417342B341734EE340A3462
:1021000022340E34253473345B34693464343A3405
:10211000253475345D342034003443344F344E3428
:10212000543449344E3455344F34553453340034D8
:1021300053344C344534453450342E342E342E34FC
:10214000203400344F344E3445345F3453344834F3
:062150004F34543400344A
:102DE20008000800080001300800240096140800BA
:102DF2002400161508002400961508002400110866
:102E02000800200091150800200091110800200000
:102E12009111080024009512080021009111080068
:102E22002400161408002100911508008A31362268
:102E32009731080023001D121D1608002400961663
:102E42001616080024009612161608008C312E243D
:102E52009731080023001E0C013908001C302100A4
:102E620097000800F000700824009100080022007A
:102E7200BC10BB010E3008009631F62697310130A6
:102E820008009631F6269731023008009631F62670
:102E92009731013008009631F92697310030080049
:102EA2009731232797310530080097311F27973133
:102EB2000A30080097311F27973109300800220095
:102EC200BC10BB010E3008002400160E890C890CC0
:102ED20001390800640080010131890B6C2F003434
:102EE200FE0012001E00FE0B722F003422003C1066
:102EF2009631FC2697310430080072302100990087
:102F0200980122009601080028346E3475346C341E
:102F12006C342934003422003C143635973133277F
:102F220097310330080022003C140314360D973108
:102F320033279731053008002700991EA12FA22FB1
:102F4200A52F88314F209731080020002408210046
:102F5200D600200023082100D50008002000A3008D
:102F62002308043E86008701010801390800200079
:102F720024082200E200200023082200E1000800C9
:102F8200200024082200D600200023082200D500B9
:102F92000800200024082200D80020002308220074
:102FA200D7000800200024082200DC0020002308AB
:102FB2002200DB000800200024082200DA002000A2
:102FC20023082200D9000800200024082200DE0085
:102FD200200023082200DD0008002000240822002F
:102FE200E000200023082200DF00080024009401F2
:102FF20008309500960113309200951208004D3466
:103002004334503439343834303433340034253492
:103012006334253475342E342534753400345B34EE
:103022002534363473345D34203400344E344F3416
:1030320052344D3441344C34003441344C344534F0
:103042005234543400342534383473342034003448
:020000040001F9
:04000E00EC37FF3E8E
:00000001FF
